{
  "transactions": [
    {
      "hash": "0x25c44245f4f53cb9c83624f15637f1e107463b41a0240071c9778caaf34e1031",
      "transactionType": "CALL",
      "contractName": null,
      "contractAddress": "0x5F74016D8191eB229E5042b41562840eBD778DD3",
      "function": "registerToken(address)",
      "arguments": [
        "0xc677c31AD31F73A5290f5ef067F8CEF8d301e45c"
      ],
      "transaction": {
        "type": "0x02",
        "from": "0x99ecb0abba20b98cf096496841241ed5e8a90883",
        "to": "0x5f74016d8191eb229e5042b41562840ebd778dd3",
        "gas": "0x10193",
        "value": "0x0",
        "data": "0x09824a80000000000000000000000000c677c31ad31f73a5290f5ef067f8cef8d301e45c",
        "nonce": "0x7",
        "accessList": []
      },
      "additionalContracts": [],
      "isFixedGasLimit": false
    },
    {
      "hash": "0x4409c2b5eabd2450eaaea19ddf8674e0380d1af334e7f1c74f31a50a933ad237",
      "transactionType": "CALL",
      "contractName": null,
      "contractAddress": "0x5F74016D8191eB229E5042b41562840eBD778DD3",
      "function": "registerToken(address)",
      "arguments": [
        "0x0773b81e0524447784CcE1F3808fed6AaA156eC8"
      ],
      "transaction": {
        "type": "0x02",
        "from": "0x99ecb0abba20b98cf096496841241ed5e8a90883",
        "to": "0x5f74016d8191eb229e5042b41562840ebd778dd3",
        "gas": "0x10193",
        "value": "0x0",
        "data": "0x09824a800000000000000000000000000773b81e0524447784cce1f3808fed6aaa156ec8",
        "nonce": "0x8",
        "accessList": []
      },
      "additionalContracts": [],
      "isFixedGasLimit": false
    }
  ],
  "receipts": [
    {
      "transactionHash": "0x25c44245f4f53cb9c83624f15637f1e107463b41a0240071c9778caaf34e1031",
      "transactionIndex": "0x0",
      "blockHash": "0xa5cc74dcf5572acbc0eb8e874028b13bf6057028cb9c522cf419786d16753842",
      "blockNumber": "0x1d0b1e2",
      "from": "0x99ECb0aBBa20B98Cf096496841241ed5e8a90883",
      "to": "0x5F74016D8191eB229E5042b41562840eBD778DD3",
      "cumulativeGasUsed": "0xba7c",
      "gasUsed": "0xba7c",
      "contractAddress": null,
      "logs": [
        {
          "address": "0x5F74016D8191eB229E5042b41562840eBD778DD3",
          "topics": [
            "0x478f5152d8fc568db3f8de9fb402fd9d98a1a7541ecfe434e59cf574fbfc5524",
            "0x000000000000000000000000c677c31ad31f73a5290f5ef067f8cef8d301e45c"
          ],
          "data": "0x",
          "blockHash": "0xa5cc74dcf5572acbc0eb8e874028b13bf6057028cb9c522cf419786d16753842",
          "blockNumber": "0x1d0b1e2",
          "transactionHash": "0x25c44245f4f53cb9c83624f15637f1e107463b41a0240071c9778caaf34e1031",
          "transactionIndex": "0x0",
          "logIndex": "0x0",
          "removed": false
        }
      ],
      "status": "0x1",
      "logsBloom": "0x00000000000000000000000000000000010000000000000000000000000000000000000000000000000000000000000000800000000000000000000040000000000000000000000000000000000000000000000000000000000000000000000002100000000000000000000000000000000000000000000000000000000000000000000000000000000000000000000000000000000000000000000000000000000000000000000000000000000000000000000000000000000000000000000000000000000000400000000000000000000000400000000000000000000000000000000000000000000100004000000000000000000000000000000000000000",
      "type": "0x2",
      "effectiveGasPrice": "0x684ee1800"
    },
    {
      "transactionHash": "0x4409c2b5eabd2450eaaea19ddf8674e0380d1af334e7f1c74f31a50a933ad237",
      "transactionIndex": "0x1",
      "blockHash": "0x21bb647055531e2c1be9746fb83d5b5b5f58f62eb1b1e0de816ce0284027bc82",
      "blockNumber": "0x1d0b1e3",
      "from": "0x99ECb0aBBa20B98Cf096496841241ed5e8a90883",
      "to": "0x5F74016D8191eB229E5042b41562840eBD778DD3",
      "cumulativeGasUsed": "0x2a802",
      "gasUsed": "0xba7c",
      "contractAddress": null,
      "logs": [
        {
          "address": "0x5F74016D8191eB229E5042b41562840eBD778DD3",
          "topics": [
            "0x478f5152d8fc568db3f8de9fb402fd9d98a1a7541ecfe434e59cf574fbfc5524",
            "0x0000000000000000000000000773b81e0524447784cce1f3808fed6aaa156ec8"
          ],
          "data": "0x",
          "blockHash": "0x21bb647055531e2c1be9746fb83d5b5b5f58f62eb1b1e0de816ce0284027bc82",
          "blockNumber": "0x1d0b1e3",
          "transactionHash": "0x4409c2b5eabd2450eaaea19ddf8674e0380d1af334e7f1c74f31a50a933ad237",
          "transactionIndex": "0x1",
          "logIndex": "0x3",
          "removed": false
        }
      ],
      "status": "0x1",
      "logsBloom": "0x00000000000000000000000000000000010000000000000000000000000000000000000000000000000000000000000000000000000000000000000000000000000001000000000000000000000000000000000000000000000000000000000002100000000000000000000000000000000000000000000000000000000000000000000000000000000000000000000000000000000000000000000000000000000000000000010000000000000000000000000000000000000000000000000000000000000000000000000000000000000000400000002000000000000000000000000000000000000100004000000000000000000000000000000000000000",
      "type": "0x2",
      "effectiveGasPrice": "0x684ee1800"
    }
  ],
  "libraries": [],
  "pending": [],
  "returns": {},
  "timestamp": 1709319944,
  "chain": 43113,
  "multi": false,
  "commit": null
}