{
  "transactions": [
    {
      "hash": "0x86de04b65f13078fbbee506629f5fe89cfbf9f48e4bd738cb23d48b7ed17440a",
      "transactionType": "CREATE",
      "contractName": "Source",
      "contractAddress": "0x911cCF462e84845E723d8c10d721e4DC6cc3df72",
      "function": null,
      "arguments": [
        "0x99ECb0aBBa20B98Cf096496841241ed5e8a90883"
      ],
      "transaction": {
        "type": "0x02",
        "from": "0x99ecb0abba20b98cf096496841241ed5e8a90883",
        "gas": "0xc1931",
        "value": "0x0",
        "data": "0x608060405234801561001057600080fd5b50604051610a6c380380610a6c83398101604081905261002f91610118565b61003a60008261006c565b506100657fa49807205ce4d355092ef5a8a18f56e8913cf4a201fbe287825b095693c217758261006c565b5050610148565b6000828152602081815260408083206001600160a01b038516845290915281205460ff1661010e576000838152602081815260408083206001600160a01b03861684529091529020805460ff191660011790556100c63390565b6001600160a01b0316826001600160a01b0316847f2f8788117e7eff1d82e926ec794901d17c78024a50270940304540a733656f0d60405160405180910390a4506001610112565b5060005b92915050565b60006020828403121561012a57600080fd5b81516001600160a01b038116811461014157600080fd5b9392505050565b610915806101576000396000f3fe608060405234801561001057600080fd5b50600436106100ea5760003560e01c806375b238fc1161008c578063a217fddf11610066578063a217fddf14610222578063d547741f1461022a578063d8b964e61461023d578063d9caed121461026057600080fd5b806375b238fc146101d55780638340f549146101fc57806391d148541461020f57600080fd5b80632f2ff15d116100c85780632f2ff15d1461015d57806336568abe14610170578063471d2b1e146101835780634f64b2be146101aa57600080fd5b806301ffc9a7146100ef57806309824a8014610117578063248a9ca31461012c575b600080fd5b6101026100fd3660046107d4565b610273565b60405190151581526020015b60405180910390f35b61012a610125366004610821565b6102aa565b005b61014f61013a36600461083c565b60009081526020819052604090206001015490565b60405190815260200161010e565b61012a61016b366004610855565b610392565b61012a61017e366004610855565b6103bd565b61014f7fa95a5379b182f9ab2dea1336b28c22442227353b86d7e0a968f68d98add11c0781565b6101bd6101b836600461083c565b6103f5565b6040516001600160a01b03909116815260200161010e565b61014f7fa49807205ce4d355092ef5a8a18f56e8913cf4a201fbe287825b095693c2177581565b61012a61020a366004610881565b61041f565b61010261021d366004610855565b61054e565b61014f600081565b61012a610238366004610855565b610577565b61010261024b366004610821565b60016020526000908152604090205460ff1681565b61012a61026e366004610881565b61059c565b60006001600160e01b03198216637965db0b60e01b14806102a457506301ffc9a760e01b6001600160e01b03198316145b92915050565b7fa49807205ce4d355092ef5a8a18f56e8913cf4a201fbe287825b095693c217756102d48161068d565b6001600160a01b03821660009081526001602052604090205460ff16156103425760405162461bcd60e51b815260206004820152601860248201527f746f6b656e20616c72656164792072656769737465726564000000000000000060448201526064015b60405180910390fd5b6001600160a01b0382166000818152600160208190526040808320805460ff1916909217909155517f478f5152d8fc568db3f8de9fb402fd9d98a1a7541ecfe434e59cf574fbfc55249190a25050565b6000828152602081905260409020600101546103ad8161068d565b6103b7838361069a565b50505050565b6001600160a01b03811633146103e65760405163334bd91960e11b815260040160405180910390fd5b6103f0828261072c565b505050565b6002818154811061040557600080fd5b6000918252602090912001546001600160a01b0316905081565b6001600160a01b03831660009081526001602081905260409091205460ff161515146104845760405162461bcd60e51b81526020600482015260146024820152731d1bdad95b881b9bdd081c9959da5cdd195c995960621b6044820152606401610339565b6040516323b872dd60e01b8152336004820152306024820152604481018290526001600160a01b038416906323b872dd906064016020604051808303816000875af11580156104d7573d6000803e3d6000fd5b505050506040513d601f19601f820116820180604052508101906104fb91906108bd565b50816001600160a01b0316836001600160a01b03167f5548c837ab068cf56a2c2479df0882a4922fd203edb7517321831d95078c5f628360405161054191815260200190565b60405180910390a3505050565b6000918252602082815260408084206001600160a01b0393909316845291905290205460ff1690565b6000828152602081905260409020600101546105928161068d565b6103b7838361072c565b7fa49807205ce4d355092ef5a8a18f56e8913cf4a201fbe287825b095693c217756105c68161068d565b60405163a9059cbb60e01b81526001600160a01b0384811660048301526024820184905285169063a9059cbb906044016020604051808303816000875af1158015610615573d6000803e3d6000fd5b505050506040513d601f19601f8201168201806040525081019061063991906108bd565b50826001600160a01b0316846001600160a01b03167f2717ead6b9200dd235aad468c9809ea400fe33ac69b5bfaa6d3e90fc922b63988460405161067f91815260200190565b60405180910390a350505050565b6106978133610797565b50565b60006106a6838361054e565b610724576000838152602081815260408083206001600160a01b03861684529091529020805460ff191660011790556106dc3390565b6001600160a01b0316826001600160a01b0316847f2f8788117e7eff1d82e926ec794901d17c78024a50270940304540a733656f0d60405160405180910390a45060016102a4565b5060006102a4565b6000610738838361054e565b15610724576000838152602081815260408083206001600160a01b0386168085529252808320805460ff1916905551339286917ff6391f5c32d9c69d2a47ea670b442974b53935d1edc7fd64eb21e047a839171b9190a45060016102a4565b6107a1828261054e565b6107d05760405163e2517d3f60e01b81526001600160a01b038216600482015260248101839052604401610339565b5050565b6000602082840312156107e657600080fd5b81356001600160e01b0319811681146107fe57600080fd5b9392505050565b80356001600160a01b038116811461081c57600080fd5b919050565b60006020828403121561083357600080fd5b6107fe82610805565b60006020828403121561084e57600080fd5b5035919050565b6000806040838503121561086857600080fd5b8235915061087860208401610805565b90509250929050565b60008060006060848603121561089657600080fd5b61089f84610805565b92506108ad60208501610805565b9150604084013590509250925092565b6000602082840312156108cf57600080fd5b815180151581146107fe57600080fdfea2646970667358221220243de6bc20d98a0b7823748f3b098d4fd5573715a45da6836fc236176f9b725f64736f6c6343000818003300000000000000000000000099ecb0abba20b98cf096496841241ed5e8a90883",
        "nonce": "0xc",
        "accessList": []
      },
      "additionalContracts": [],
      "isFixedGasLimit": false
    },
    {
      "hash": "0x5d9761610f7b4420c1f620fb9e9e7d47099b00487f86bd6c20311251d036c404",
      "transactionType": "CALL",
      "contractName": "src/Source.sol:Source",
      "contractAddress": "0x911cCF462e84845E723d8c10d721e4DC6cc3df72",
      "function": "registerToken(address)",
      "arguments": [
        "0xc677c31AD31F73A5290f5ef067F8CEF8d301e45c"
      ],
      "transaction": {
        "type": "0x02",
        "from": "0x99ecb0abba20b98cf096496841241ed5e8a90883",
        "to": "0x911ccf462e84845e723d8c10d721e4dc6cc3df72",
        "gas": "0x10193",
        "value": "0x0",
        "data": "0x09824a80000000000000000000000000c677c31ad31f73a5290f5ef067f8cef8d301e45c",
        "nonce": "0xd",
        "accessList": []
      },
      "additionalContracts": [],
      "isFixedGasLimit": false
    },
    {
      "hash": "0x07657fc06c5f560e6917d3e19dcbbe112db00a413b5d20d49ed69d7470e9f417",
      "transactionType": "CALL",
      "contractName": "src/Source.sol:Source",
      "contractAddress": "0x911cCF462e84845E723d8c10d721e4DC6cc3df72",
      "function": "registerToken(address)",
      "arguments": [
        "0x0773b81e0524447784CcE1F3808fed6AaA156eC8"
      ],
      "transaction": {
        "type": "0x02",
        "from": "0x99ecb0abba20b98cf096496841241ed5e8a90883",
        "to": "0x911ccf462e84845e723d8c10d721e4dc6cc3df72",
        "gas": "0x10193",
        "value": "0x0",
        "data": "0x09824a800000000000000000000000000773b81e0524447784cce1f3808fed6aaa156ec8",
        "nonce": "0xe",
        "accessList": []
      },
      "additionalContracts": [],
      "isFixedGasLimit": false
    }
  ],
  "receipts": [
    {
      "transactionHash": "0x86de04b65f13078fbbee506629f5fe89cfbf9f48e4bd738cb23d48b7ed17440a",
      "transactionIndex": "0x0",
      "blockHash": "0xf1ad5d84e7fe893035f8cc671b5aaa416e8503c11f9606d74f066cf74ec862d0",
      "blockNumber": "0x1d0b410",
      "from": "0x99ECb0aBBa20B98Cf096496841241ed5e8a90883",
      "to": null,
      "cumulativeGasUsed": "0x94f1f",
      "gasUsed": "0x94f1f",
      "contractAddress": "0x911cCF462e84845E723d8c10d721e4DC6cc3df72",
      "logs": [
        {
          "address": "0x911cCF462e84845E723d8c10d721e4DC6cc3df72",
          "topics": [
            "0x2f8788117e7eff1d82e926ec794901d17c78024a50270940304540a733656f0d",
            "0x0000000000000000000000000000000000000000000000000000000000000000",
            "0x00000000000000000000000099ecb0abba20b98cf096496841241ed5e8a90883",
            "0x00000000000000000000000099ecb0abba20b98cf096496841241ed5e8a90883"
          ],
          "data": "0x",
          "blockHash": "0xf1ad5d84e7fe893035f8cc671b5aaa416e8503c11f9606d74f066cf74ec862d0",
          "blockNumber": "0x1d0b410",
          "transactionHash": "0x86de04b65f13078fbbee506629f5fe89cfbf9f48e4bd738cb23d48b7ed17440a",
          "transactionIndex": "0x0",
          "logIndex": "0x0",
          "removed": false
        },
        {
          "address": "0x911cCF462e84845E723d8c10d721e4DC6cc3df72",
          "topics": [
            "0x2f8788117e7eff1d82e926ec794901d17c78024a50270940304540a733656f0d",
            "0xa49807205ce4d355092ef5a8a18f56e8913cf4a201fbe287825b095693c21775",
            "0x00000000000000000000000099ecb0abba20b98cf096496841241ed5e8a90883",
            "0x00000000000000000000000099ecb0abba20b98cf096496841241ed5e8a90883"
          ],
          "data": "0x",
          "blockHash": "0xf1ad5d84e7fe893035f8cc671b5aaa416e8503c11f9606d74f066cf74ec862d0",
          "blockNumber": "0x1d0b410",
          "transactionHash": "0x86de04b65f13078fbbee506629f5fe89cfbf9f48e4bd738cb23d48b7ed17440a",
          "transactionIndex": "0x0",
          "logIndex": "0x1",
          "removed": false
        }
      ],
      "status": "0x1",
      "logsBloom": "0x00000004000000000000000000000800000000000000000000208000000000000000000000000000000000000000000000000000000000000000000002000000000000000000000000000000000000000000000020010000000000000000000000000000020000000000000000000800000000000000000800000000000000000000000000000000000000000000004000000000000000000000000000000000000000000000000000000000000000000000000000000000001000000000000000000000000000000000000000000000000000000000000100000000000020000000000000000000000000000000000000000000000000000000000000400000",
      "type": "0x2",
      "effectiveGasPrice": "0x684ee1800"
    },
    {
      "transactionHash": "0x5d9761610f7b4420c1f620fb9e9e7d47099b00487f86bd6c20311251d036c404",
      "transactionIndex": "0x1",
      "blockHash": "0x80b69ff6be97bf4130ae12d674906f6eeeff548ecec2ff8e652de3fb04b76a20",
      "blockNumber": "0x1d0b411",
      "from": "0x99ECb0aBBa20B98Cf096496841241ed5e8a90883",
      "to": "0x911cCF462e84845E723d8c10d721e4DC6cc3df72",
      "cumulativeGasUsed": "0x3ac09",
      "gasUsed": "0xba7c",
      "contractAddress": null,
      "logs": [
        {
          "address": "0x911cCF462e84845E723d8c10d721e4DC6cc3df72",
          "topics": [
            "0x478f5152d8fc568db3f8de9fb402fd9d98a1a7541ecfe434e59cf574fbfc5524",
            "0x000000000000000000000000c677c31ad31f73a5290f5ef067f8cef8d301e45c"
          ],
          "data": "0x",
          "blockHash": "0x80b69ff6be97bf4130ae12d674906f6eeeff548ecec2ff8e652de3fb04b76a20",
          "blockNumber": "0x1d0b411",
          "transactionHash": "0x5d9761610f7b4420c1f620fb9e9e7d47099b00487f86bd6c20311251d036c404",
          "transactionIndex": "0x1",
          "logIndex": "0x4",
          "removed": false
        }
      ],
      "status": "0x1",
      "logsBloom": "0x00000000000000000000000000000800010000000000000000000000000000000000000000000000000000000000000000800000000000000000000042000000000000000000000000000000000000000000000000010000000000000000000000100000000000000000000000000000000000000000000000000000000000000000000000000000000000000000000000000000000000000000000000000000000000000000000000000000000000000000000000000000000000000000000000000000000000400000000000000000000000400000000000000000000000000000000000000000000000000000000000000000000000000000000000000000",
      "type": "0x2",
      "effectiveGasPrice": "0x684ee1800"
    },
    {
      "transactionHash": "0x07657fc06c5f560e6917d3e19dcbbe112db00a413b5d20d49ed69d7470e9f417",
      "transactionIndex": "0x2",
      "blockHash": "0x80b69ff6be97bf4130ae12d674906f6eeeff548ecec2ff8e652de3fb04b76a20",
      "blockNumber": "0x1d0b411",
      "from": "0x99ECb0aBBa20B98Cf096496841241ed5e8a90883",
      "to": "0x911cCF462e84845E723d8c10d721e4DC6cc3df72",
      "cumulativeGasUsed": "0x46685",
      "gasUsed": "0xba7c",
      "contractAddress": null,
      "logs": [
        {
          "address": "0x911cCF462e84845E723d8c10d721e4DC6cc3df72",
          "topics": [
            "0x478f5152d8fc568db3f8de9fb402fd9d98a1a7541ecfe434e59cf574fbfc5524",
            "0x0000000000000000000000000773b81e0524447784cce1f3808fed6aaa156ec8"
          ],
          "data": "0x",
          "blockHash": "0x80b69ff6be97bf4130ae12d674906f6eeeff548ecec2ff8e652de3fb04b76a20",
          "blockNumber": "0x1d0b411",
          "transactionHash": "0x07657fc06c5f560e6917d3e19dcbbe112db00a413b5d20d49ed69d7470e9f417",
          "transactionIndex": "0x2",
          "logIndex": "0x5",
          "removed": false
        }
      ],
      "status": "0x1",
      "logsBloom": "0x00000000000000000000000000000800010000000000000000000000000000000000000000000000000000000000000000000000000000000000000002000000000001000000000000000000000000000000000000010000000000000000000000100000000000000000000000000000000000000000000000000000000000000000000000000000000000000000000000000000000000000000000000000000000000000000010000000000000000000000000000000000000000000000000000000000000000000000000000000000000000400000002000000000000000000000000000000000000000000000000000000000000000000000000000000000",
      "type": "0x2",
      "effectiveGasPrice": "0x684ee1800"
    }
  ],
  "libraries": [],
  "pending": [],
  "returns": {},
  "timestamp": 1709322065,
  "chain": 43113,
  "multi": false,
  "commit": null
}